{
  "contractName": "Election",
  "abi": [
    {
      "constant": true,
      "inputs": [],
      "name": "candidate",
      "outputs": [
        {
          "name": "",
          "type": "string"
        }
      ],
      "payable": false,
      "stateMutability": "view",
      "type": "function"
    },
    {
      "constant": false,
      "inputs": [],
      "name": "Constructor",
      "outputs": [],
      "payable": false,
      "stateMutability": "nonpayable",
      "type": "function"
    }
  ],
  "bytecode": "0x608060405234801561001057600080fd5b506102b5806100206000396000f3fe60806040526004361061004c576000357c0100000000000000000000000000000000000000000000000000000000900463ffffffff1680636c8381f8146100515780638a3c44a5146100e1575b600080fd5b34801561005d57600080fd5b506100666100f8565b6040518080602001828103825283818151815260200191508051906020019080838360005b838110156100a657808201518184015260208101905061008b565b50505050905090810190601f1680156100d35780820380516001836020036101000a031916815260200191505b509250505060405180910390f35b3480156100ed57600080fd5b506100f6610196565b005b60008054600181600116156101000203166002900480601f01602080910402602001604051908101604052809291908181526020018280546001816001161561010002031660029004801561018e5780601f106101635761010080835404028352916020019161018e565b820191906000526020600020905b81548152906001019060200180831161017157829003601f168201915b505050505081565b6040805190810160405280600b81526020017f43616e6469646174652031000000000000000000000000000000000000000000815250600090805190602001906101e19291906101e4565b50565b828054600181600116156101000203166002900490600052602060002090601f016020900481019282601f1061022557805160ff1916838001178555610253565b82800160010185558215610253579182015b82811115610252578251825591602001919060010190610237565b5b5090506102609190610264565b5090565b61028691905b8082111561028257600081600090555060010161026a565b5090565b9056fea165627a7a72305820a7d46681c8a943ce13bf01b56608bba3a920b962ca614db0900cac8121e6a7d40029",
  "source": "pragma solidity ^0.5.0;\n\ncontract Election {\n\t// Store candidate\n\t// Read candidate\n\t// Constructor\n\tstring public candidate;\n\n\tfunction Constructor () public {\n\t\tcandidate = \"Candidate 1\";\n\n\t}\n\n}",
  "sourcePath": "/Users/harpreetsingh/development/election/contracts/Election.sol",
  "compiler": {
    "name": "solc",
    "version": "0.5.0+commit.1d4f565a.Emscripten.clang"
  },
  "schemaVersion": "3.0.9",
  "updatedAt": "2019-05-27T04:43:31.058Z",
  "devdoc": {
    "methods": {}
  },
  "userdoc": {
    "methods": {}
  }
}